{
  "contractName": "ToDo",
  "abi": [
    {
      "constant": true,
      "inputs": [
        {
          "name": "",
          "type": "uint256"
        }
      ],
      "name": "tasks",
      "outputs": [
        {
          "name": "id",
          "type": "uint256"
        },
        {
          "name": "name",
          "type": "string"
        },
        {
          "name": "content",
          "type": "string"
        },
        {
          "name": "status",
          "type": "string"
        }
      ],
      "payable": false,
      "stateMutability": "view",
      "type": "function",
      "signature": "0x8d977672"
    },
    {
      "inputs": [],
      "payable": false,
      "stateMutability": "nonpayable",
      "type": "constructor",
      "signature": "constructor"
    },
    {
      "constant": true,
      "inputs": [],
      "name": "getTaskCount",
      "outputs": [
        {
          "name": "",
          "type": "uint256"
        }
      ],
      "payable": false,
      "stateMutability": "view",
      "type": "function",
      "signature": "0xc17a340e"
    },
    {
      "constant": false,
      "inputs": [
        {
          "name": "_name",
          "type": "string"
        },
        {
          "name": "_content",
          "type": "string"
        }
      ],
      "name": "addTask",
      "outputs": [],
      "payable": true,
      "stateMutability": "payable",
      "type": "function",
      "signature": "0xb37b1000"
    }
  ],
  "bytecode": "0x608060405234801561001057600080fd5b506000608060405190810160405280600181526020016040805190810160405280600b81526020017f53616d706c65205461736b00000000000000000000000000000000000000000081525081526020016040805190810160405280601581526020017f5468697320697320612073616d706c65207461736b000000000000000000000081525081526020016040805190810160405280600381526020017f6e6577000000000000000000000000000000000000000000000000000000000081525081525090806001815401808255809150509060018203906000526020600020906004020160009091929091909150600082015181600001556020820151816001019080519060200190610126929190610169565b506040820151816002019080519060200190610143929190610169565b506060820151816003019080519060200190610160929190610169565b5050505061020e565b828054600181600116156101000203166002900490600052602060002090601f016020900481019282601f106101aa57805160ff19168380011785556101d8565b828001600101855582156101d8579182015b828111156101d75782518255916020019190600101906101bc565b5b5090506101e591906101e9565b5090565b61020b91905b808211156102075760008160009055506001016101ef565b5090565b90565b6107678061021d6000396000f3fe608060405260043610610057576000357c0100000000000000000000000000000000000000000000000000000000900463ffffffff1680638d9776721461005c578063b37b1000146101ef578063c17a340e14610341575b600080fd5b34801561006857600080fd5b506100956004803603602081101561007f57600080fd5b810190808035906020019092919050505061036c565b60405180858152602001806020018060200180602001848103845287818151815260200191508051906020019080838360005b838110156100e35780820151818401526020810190506100c8565b50505050905090810190601f1680156101105780820380516001836020036101000a031916815260200191505b50848103835286818151815260200191508051906020019080838360005b8381101561014957808201518184015260208101905061012e565b50505050905090810190601f1680156101765780820380516001836020036101000a031916815260200191505b50848103825285818151815260200191508051906020019080838360005b838110156101af578082015181840152602081019050610194565b50505050905090810190601f1680156101dc5780820380516001836020036101000a031916815260200191505b5097505050505050505060405180910390f35b61033f6004803603604081101561020557600080fd5b810190808035906020019064010000000081111561022257600080fd5b82018360208201111561023457600080fd5b8035906020019184600183028401116401000000008311171561025657600080fd5b91908080601f016020809104026020016040519081016040528093929190818152602001838380828437600081840152601f19601f820116905080830192505050505050509192919290803590602001906401000000008111156102b957600080fd5b8201836020820111156102cb57600080fd5b803590602001918460018302840111640100000000831117156102ed57600080fd5b91908080601f016020809104026020016040519081016040528093929190818152602001838380828437600081840152601f19601f820116905080830192505050505050509192919290505050610573565b005b34801561034d57600080fd5b5061035661068a565b6040518082815260200191505060405180910390f35b60008181548110151561037b57fe5b9060005260206000209060040201600091509050806000015490806001018054600181600116156101000203166002900480601f01602080910402602001604051908101604052809291908181526020018280546001816001161561010002031660029004801561042d5780601f106104025761010080835404028352916020019161042d565b820191906000526020600020905b81548152906001019060200180831161041057829003601f168201915b505050505090806002018054600181600116156101000203166002900480601f0160208091040260200160405190810160405280929190818152602001828054600181600116156101000203166002900480156104cb5780601f106104a0576101008083540402835291602001916104cb565b820191906000526020600020905b8154815290600101906020018083116104ae57829003601f168201915b505050505090806003018054600181600116156101000203166002900480601f0160208091040260200160405190810160405280929190818152602001828054600181600116156101000203166002900480156105695780601f1061053e57610100808354040283529160200191610569565b820191906000526020600020905b81548152906001019060200180831161054c57829003601f168201915b5050505050905084565b60006080604051908101604052806001600060016000805490500381548110151561059a57fe5b9060005260206000209060040201600001540181526020018481526020018381526020016040805190810160405280600381526020017f6e6577000000000000000000000000000000000000000000000000000000000081525081525090806001815401808255809150509060018203906000526020600020906004020160009091929091909150600082015181600001556020820151816001019080519060200190610648929190610696565b506040820151816002019080519060200190610665929190610696565b506060820151816003019080519060200190610682929190610696565b505050505050565b60008080549050905090565b828054600181600116156101000203166002900490600052602060002090601f016020900481019282601f106106d757805160ff1916838001178555610705565b82800160010185558215610705579182015b828111156107045782518255916020019190600101906106e9565b5b5090506107129190610716565b5090565b61073891905b8082111561073457600081600090555060010161071c565b5090565b9056fea165627a7a72305820f48492873a60961bbe11af3222a44a38d896291b946d0f43a9f86e75811b63590029",
  "source": "// SPDX-License-Identifier: MIT\npragma solidity ^0.5.0;\n\ncontract ToDo {\n    struct Task {\n        uint256 id;\n        string name;\n        string content;\n        string status;\n    }\n\n    Task[] public tasks;\n\n    constructor() public {\n        tasks.push(Task({\n            id: 1,\n            name: \"Sample Task\",\n            content: \"This is a sample task\",\n            status: \"new\"\n        }));\n    }\n\n    function getTaskCount() public view returns(uint) {\n        return tasks.length;\n    }\n\n    function addTask(string memory _name, string memory _content) public payable {\n        tasks.push(Task({\n            id: tasks[tasks.length - 1].id + 1,\n            name: _name,\n            content: _content,\n            status: \"new\"\n        }));\n    }\n}\n",
  "sourcePath": "/Users/vaheabelyan/Desktop/dapp-todo/contracts/ToDo.sol",
  "compiler": {
    "name": "solc",
    "version": "0.5.0+commit.1d4f565a.Emscripten.clang"
  },
  "schemaVersion": "3.0.1",
  "updatedAt": "2022-04-06T13:09:19.778Z",
  "devdoc": {
    "methods": {}
  },
  "userdoc": {
    "methods": {}
  }
}