{
  "contractName": "ToDo",
  "abi": [
    {
      "constant": true,
      "inputs": [
        {
          "name": "",
          "type": "uint256"
        }
      ],
      "name": "tasks",
      "outputs": [
        {
          "name": "id",
          "type": "uint256"
        },
        {
          "name": "name",
          "type": "string"
        },
        {
          "name": "content",
          "type": "string"
        },
        {
          "name": "status",
          "type": "string"
        }
      ],
      "payable": false,
      "stateMutability": "view",
      "type": "function",
      "signature": "0x8d977672"
    },
    {
      "inputs": [],
      "payable": false,
      "stateMutability": "nonpayable",
      "type": "constructor",
      "signature": "constructor"
    }
  ],
  "bytecode": "0x608060405234801561001057600080fd5b506000608060405190810160405280600181526020016040805190810160405280600b81526020017f53616d706c65205461736b00000000000000000000000000000000000000000081525081526020016040805190810160405280601581526020017f5468697320697320612073616d706c65207461736b000000000000000000000081525081526020016040805190810160405280600381526020017f6e6577000000000000000000000000000000000000000000000000000000000081525081525090806001815401808255809150509060018203906000526020600020906004020160009091929091909150600082015181600001556020820151816001019080519060200190610126929190610169565b506040820151816002019080519060200190610143929190610169565b506060820151816003019080519060200190610160929190610169565b5050505061020e565b828054600181600116156101000203166002900490600052602060002090601f016020900481019282601f106101aa57805160ff19168380011785556101d8565b828001600101855582156101d8579182015b828111156101d75782518255916020019190600101906101bc565b5b5090506101e591906101e9565b5090565b61020b91905b808211156102075760008160009055506001016101ef565b5090565b90565b61040c8061021d6000396000f3fe608060405260043610610041576000357c0100000000000000000000000000000000000000000000000000000000900463ffffffff1680638d97767214610046575b600080fd5b34801561005257600080fd5b5061007f6004803603602081101561006957600080fd5b81019080803590602001909291905050506101d9565b60405180858152602001806020018060200180602001848103845287818151815260200191508051906020019080838360005b838110156100cd5780820151818401526020810190506100b2565b50505050905090810190601f1680156100fa5780820380516001836020036101000a031916815260200191505b50848103835286818151815260200191508051906020019080838360005b83811015610133578082015181840152602081019050610118565b50505050905090810190601f1680156101605780820380516001836020036101000a031916815260200191505b50848103825285818151815260200191508051906020019080838360005b8381101561019957808201518184015260208101905061017e565b50505050905090810190601f1680156101c65780820380516001836020036101000a031916815260200191505b5097505050505050505060405180910390f35b6000818154811015156101e857fe5b9060005260206000209060040201600091509050806000015490806001018054600181600116156101000203166002900480601f01602080910402602001604051908101604052809291908181526020018280546001816001161561010002031660029004801561029a5780601f1061026f5761010080835404028352916020019161029a565b820191906000526020600020905b81548152906001019060200180831161027d57829003601f168201915b505050505090806002018054600181600116156101000203166002900480601f0160208091040260200160405190810160405280929190818152602001828054600181600116156101000203166002900480156103385780601f1061030d57610100808354040283529160200191610338565b820191906000526020600020905b81548152906001019060200180831161031b57829003601f168201915b505050505090806003018054600181600116156101000203166002900480601f0160208091040260200160405190810160405280929190818152602001828054600181600116156101000203166002900480156103d65780601f106103ab576101008083540402835291602001916103d6565b820191906000526020600020905b8154815290600101906020018083116103b957829003601f168201915b505050505090508456fea165627a7a7230582023e10a510ed6cb9663cc3ccdbb95453a63c49b96f80f9962db8a2f778ce588a00029",
  "source": "// SPDX-License-Identifier: MIT\npragma solidity ^0.5.0;\n\ncontract ToDo {\n    struct Task {\n        uint256 id;\n        string name;\n        string content;\n        string status;\n    }\n\n    Task[] public tasks;\n\n    constructor() public {\n        tasks.push(Task({\n            id: 1,\n            name: \"Sample Task\",\n            content: \"This is a sample task\",\n            status: \"new\"\n        }));\n    }\n}\n",
  "sourcePath": "/Users/vaheabelyan/Desktop/dapp-todo/contracts/ToDo.sol",
  "compiler": {
    "name": "solc",
    "version": "0.5.0+commit.1d4f565a.Emscripten.clang"
  },
  "schemaVersion": "3.0.1",
  "updatedAt": "2022-04-06T11:55:56.862Z",
  "devdoc": {
    "methods": {}
  },
  "userdoc": {
    "methods": {}
  }
}